{
  "contractName": "Twitter",
  "abi": [
    {
      "constant": true,
      "inputs": [],
      "name": "tweetCount",
      "outputs": [
        {
          "internalType": "uint256",
          "name": "",
          "type": "uint256"
        }
      ],
      "payable": false,
      "stateMutability": "view",
      "type": "function"
    },
    {
      "constant": true,
      "inputs": [],
      "name": "userCount",
      "outputs": [
        {
          "internalType": "uint256",
          "name": "",
          "type": "uint256"
        }
      ],
      "payable": false,
      "stateMutability": "view",
      "type": "function"
    },
    {
      "constant": true,
      "inputs": [
        {
          "internalType": "address",
          "name": "_addr",
          "type": "address"
        }
      ],
      "name": "userExists",
      "outputs": [
        {
          "internalType": "bool",
          "name": "",
          "type": "bool"
        }
      ],
      "payable": false,
      "stateMutability": "view",
      "type": "function"
    },
    {
      "constant": false,
      "inputs": [
        {
          "internalType": "string",
          "name": "_fullname",
          "type": "string"
        }
      ],
      "name": "createUser",
      "outputs": [],
      "payable": false,
      "stateMutability": "nonpayable",
      "type": "function"
    },
    {
      "constant": false,
      "inputs": [
        {
          "internalType": "string",
          "name": "_content",
          "type": "string"
        }
      ],
      "name": "newTweet",
      "outputs": [],
      "payable": false,
      "stateMutability": "nonpayable",
      "type": "function"
    },
    {
      "constant": true,
      "inputs": [],
      "name": "getAllTweets",
      "outputs": [
        {
          "components": [
            {
              "internalType": "address",
              "name": "author",
              "type": "address"
            },
            {
              "internalType": "string",
              "name": "content",
              "type": "string"
            },
            {
              "internalType": "uint256",
              "name": "likeCount",
              "type": "uint256"
            },
            {
              "internalType": "address[]",
              "name": "likes",
              "type": "address[]"
            },
            {
              "components": [
                {
                  "internalType": "address",
                  "name": "author",
                  "type": "address"
                },
                {
                  "internalType": "string",
                  "name": "content",
                  "type": "string"
                },
                {
                  "internalType": "uint256",
                  "name": "timestamp",
                  "type": "uint256"
                }
              ],
              "internalType": "struct Twitter.Reply[]",
              "name": "replies",
              "type": "tuple[]"
            }
          ],
          "internalType": "struct Twitter.Tweet[]",
          "name": "",
          "type": "tuple[]"
        }
      ],
      "payable": false,
      "stateMutability": "view",
      "type": "function"
    },
    {
      "constant": true,
      "inputs": [
        {
          "internalType": "address",
          "name": "_user",
          "type": "address"
        }
      ],
      "name": "getTweetsByUser",
      "outputs": [
        {
          "components": [
            {
              "internalType": "address",
              "name": "author",
              "type": "address"
            },
            {
              "internalType": "string",
              "name": "content",
              "type": "string"
            },
            {
              "internalType": "uint256",
              "name": "likeCount",
              "type": "uint256"
            },
            {
              "internalType": "address[]",
              "name": "likes",
              "type": "address[]"
            },
            {
              "components": [
                {
                  "internalType": "address",
                  "name": "author",
                  "type": "address"
                },
                {
                  "internalType": "string",
                  "name": "content",
                  "type": "string"
                },
                {
                  "internalType": "uint256",
                  "name": "timestamp",
                  "type": "uint256"
                }
              ],
              "internalType": "struct Twitter.Reply[]",
              "name": "replies",
              "type": "tuple[]"
            }
          ],
          "internalType": "struct Twitter.Tweet[]",
          "name": "",
          "type": "tuple[]"
        }
      ],
      "payable": false,
      "stateMutability": "view",
      "type": "function"
    }
  ],
  "bytecode": "0x608060405260008055600060025534801561001957600080fd5b5061178c806100296000396000f3fe608060405234801561001057600080fd5b506004361061007d5760003560e01c80634a7782b31161005b5780634a7782b3146100ec578063507ffba51461010a5780635325613514610126578063707c54e5146101445761007d565b806307973ccf146100825780630e666e49146100a057806334dee1fa146100d0575b600080fd5b61008a610174565b604051610097919061154b565b60405180910390f35b6100ba60048036036100b5919081019061100e565b61017a565b6040516100c791906114b0565b60405180910390f35b6100ea60048036036100e5919081019061107c565b6101dc565b005b6100f4610391565b604051610101919061154b565b60405180910390f35b610124600480360361011f9190810190611037565b610397565b005b61012e6105a2565b60405161013b919061148e565b60405180910390f35b61015e6004803603610159919081019061100e565b61092f565b60405161016b919061148e565b60405180910390f35b60005481565b600080600160008473ffffffffffffffffffffffffffffffffffffffff1673ffffffffffffffffffffffffffffffffffffffff168152602001908152602001600020600201805460018160011615610100020316600290049050119050919050565b6101e53361017a565b610224576040517f08c379a000000000000000000000000000000000000000000000000000000000815260040161021b9061150b565b60405180910390fd5b61022d81610de4565b61026c576040517f08c379a0000000000000000000000000000000000000000000000000000000008152600401610263906114eb565b60405180910390fd5b3360036000600254815260200190815260200160002060000160006101000a81548173ffffffffffffffffffffffffffffffffffffffff021916908373ffffffffffffffffffffffffffffffffffffffff1602179055508060036000600254815260200190815260200160002060010190805190602001906102ef929190610df1565b50600060036000600254815260200190815260200160002060020181905550600160003373ffffffffffffffffffffffffffffffffffffffff1673ffffffffffffffffffffffffffffffffffffffff168152602001908152602001600020600301600254908060018154018082558091505090600182039060005260206000200160009091929091909150555060026000815480929190600101919050555050565b60025481565b600015156103a43361017a565b1515146103e6576040517f08c379a00000000000000000000000000000000000000000000000000000000081526004016103dd906114cb565b60405180910390fd5b61043382828080601f016020809104026020016040519081016040528093929190818152602001838380828437600081840152601f19601f82011690508083019250505050505050610de4565b610472576040517f08c379a00000000000000000000000000000000000000000000000000000000081526004016104699061152b565b60405180910390fd5b6001600080828254019250508190555033600160003373ffffffffffffffffffffffffffffffffffffffff1673ffffffffffffffffffffffffffffffffffffffff16815260200190815260200160002060000160006101000a81548173ffffffffffffffffffffffffffffffffffffffff021916908373ffffffffffffffffffffffffffffffffffffffff160217905550600054600160003373ffffffffffffffffffffffffffffffffffffffff1673ffffffffffffffffffffffffffffffffffffffff168152602001908152602001600020600101819055508181600160003373ffffffffffffffffffffffffffffffffffffffff1673ffffffffffffffffffffffffffffffffffffffff168152602001908152602001600020600201919061059d929190610e71565b505050565b6060806002546040519080825280602002602001820160405280156105e157816020015b6105ce610ef1565b8152602001906001900390816105c65790505b50905060008090505b60025481101561092757600360008281526020019081526020016000206040518060a00160405290816000820160009054906101000a900473ffffffffffffffffffffffffffffffffffffffff1673ffffffffffffffffffffffffffffffffffffffff1673ffffffffffffffffffffffffffffffffffffffff168152602001600182018054600181600116156101000203166002900480601f0160208091040260200160405190810160405280929190818152602001828054600181600116156101000203166002900480156107015780601f106106d657610100808354040283529160200191610701565b820191906000526020600020905b8154815290600101906020018083116106e457829003601f168201915b50505050508152602001600282015481526020016003820180548060200260200160405190810160405280929190818152602001828054801561079957602002820191906000526020600020905b8160009054906101000a900473ffffffffffffffffffffffffffffffffffffffff1673ffffffffffffffffffffffffffffffffffffffff168152602001906001019080831161074f575b5050505050815260200160048201805480602002602001604051908101604052809291908181526020016000905b828210156108fb57838290600052602060002090600302016040518060600160405290816000820160009054906101000a900473ffffffffffffffffffffffffffffffffffffffff1673ffffffffffffffffffffffffffffffffffffffff1673ffffffffffffffffffffffffffffffffffffffff168152602001600182018054600181600116156101000203166002900480601f0160208091040260200160405190810160405280929190818152602001828054600181600116156101000203166002900480156108d95780601f106108ae576101008083540402835291602001916108d9565b820191906000526020600020905b8154815290600101906020018083116108bc57829003601f168201915b50505050508152602001600282015481525050815260200190600101906107c7565b505050508152505082828151811061090f57fe5b602002602001018190525080806001019150506105ea565b819250505090565b606061093a8261017a565b610979576040517f08c379a00000000000000000000000000000000000000000000000000000000081526004016109709061150b565b60405180910390fd5b6060600160008473ffffffffffffffffffffffffffffffffffffffff1673ffffffffffffffffffffffffffffffffffffffff168152602001908152602001600020600301805490506040519080825280602002602001820160405280156109fa57816020015b6109e7610ef1565b8152602001906001900390816109df5790505b50905060008090505b600160008573ffffffffffffffffffffffffffffffffffffffff1673ffffffffffffffffffffffffffffffffffffffff16815260200190815260200160002060030180549050811015610dda5760036000600160008773ffffffffffffffffffffffffffffffffffffffff1673ffffffffffffffffffffffffffffffffffffffff1681526020019081526020016000206003018381548110610aa157fe5b906000526020600020015481526020019081526020016000206040518060a00160405290816000820160009054906101000a900473ffffffffffffffffffffffffffffffffffffffff1673ffffffffffffffffffffffffffffffffffffffff1673ffffffffffffffffffffffffffffffffffffffff168152602001600182018054600181600116156101000203166002900480601f016020809104026020016040519081016040528092919081815260200182805460018160011615610100020316600290048015610bb45780601f10610b8957610100808354040283529160200191610bb4565b820191906000526020600020905b815481529060010190602001808311610b9757829003601f168201915b505050505081526020016002820154815260200160038201805480602002602001604051908101604052809291908181526020018280548015610c4c57602002820191906000526020600020905b8160009054906101000a900473ffffffffffffffffffffffffffffffffffffffff1673ffffffffffffffffffffffffffffffffffffffff1681526020019060010190808311610c02575b5050505050815260200160048201805480602002602001604051908101604052809291908181526020016000905b82821015610dae57838290600052602060002090600302016040518060600160405290816000820160009054906101000a900473ffffffffffffffffffffffffffffffffffffffff1673ffffffffffffffffffffffffffffffffffffffff1673ffffffffffffffffffffffffffffffffffffffff168152602001600182018054600181600116156101000203166002900480601f016020809104026020016040519081016040528092919081815260200182805460018160011615610100020316600290048015610d8c5780601f10610d6157610100808354040283529160200191610d8c565b820191906000526020600020905b815481529060010190602001808311610d6f57829003601f168201915b5050505050815260200160028201548152505081526020019060010190610c7a565b5050505081525050828281518110610dc257fe5b60200260200101819052508080600101915050610a03565b8192505050919050565b6000808251119050919050565b828054600181600116156101000203166002900490600052602060002090601f016020900481019282601f10610e3257805160ff1916838001178555610e60565b82800160010185558215610e60579182015b82811115610e5f578251825591602001919060010190610e44565b5b509050610e6d9190610f36565b5090565b828054600181600116156101000203166002900490600052602060002090601f016020900481019282601f10610eb257803560ff1916838001178555610ee0565b82800160010185558215610ee0579182015b82811115610edf578235825591602001919060010190610ec4565b5b509050610eed9190610f36565b5090565b6040518060a00160405280600073ffffffffffffffffffffffffffffffffffffffff168152602001606081526020016000815260200160608152602001606081525090565b610f5891905b80821115610f54576000816000905550600101610f3c565b5090565b90565b600081359050610f6a81611732565b92915050565b60008083601f840112610f8257600080fd5b8235905067ffffffffffffffff811115610f9b57600080fd5b602083019150836001820283011115610fb357600080fd5b9250929050565b600082601f830112610fcb57600080fd5b8135610fde610fd982611593565b611566565b91508082526020830160208301858383011115610ffa57600080fd5b6110058382846116df565b50505092915050565b60006020828403121561102057600080fd5b600061102e84828501610f5b565b91505092915050565b6000806020838503121561104a57600080fd5b600083013567ffffffffffffffff81111561106457600080fd5b61107085828601610f70565b92509250509250929050565b60006020828403121561108e57600080fd5b600082013567ffffffffffffffff8111156110a857600080fd5b6110b484828501610fba565b91505092915050565b60006110c983836110fd565b60208301905092915050565b60006110e1838361139c565b905092915050565b60006110f583836113ec565b905092915050565b61110681611697565b82525050565b6000611117826115ef565b6111218185611642565b935061112c836115bf565b8060005b8381101561115d57815161114488826110bd565b975061114f8361161b565b925050600181019050611130565b5085935050505092915050565b6000611175826115fa565b61117f8185611653565b935083602082028501611191856115cf565b8060005b858110156111cd57848403895281516111ae85826110d5565b94506111b983611628565b925060208a01995050600181019050611195565b50829750879550505050505092915050565b60006111ea82611605565b6111f48185611664565b935083602082028501611206856115df565b8060005b85811015611242578484038952815161122385826110e9565b945061122e83611635565b925060208a0199505060018101905061120a565b50829750879550505050505092915050565b61125d816116a9565b82525050565b600061126e82611610565b6112788185611675565b93506112888185602086016116ee565b61129181611721565b840191505092915050565b60006112a9601483611686565b91507f5573657220616c726561647920657869737473210000000000000000000000006000830152602082019050919050565b60006112e9601d83611686565b91507f547765657420636f6e74656e742063616e277420626520656d707479210000006000830152602082019050919050565b6000611329601483611686565b91507f5573657220646f65736e277420657869737473210000000000000000000000006000830152602082019050919050565b6000611369601883611686565b91507f46756c6c6e616d652063616e277420626520656d7074792100000000000000006000830152602082019050919050565b60006060830160008301516113b460008601826110fd565b50602083015184820360208601526113cc8282611263565b91505060408301516113e16040860182611470565b508091505092915050565b600060a08301600083015161140460008601826110fd565b506020830151848203602086015261141c8282611263565b91505060408301516114316040860182611470565b5060608301518482036060860152611449828261110c565b91505060808301518482036080860152611463828261116a565b9150508091505092915050565b611479816116d5565b82525050565b611488816116d5565b82525050565b600060208201905081810360008301526114a881846111df565b905092915050565b60006020820190506114c56000830184611254565b92915050565b600060208201905081810360008301526114e48161129c565b9050919050565b60006020820190508181036000830152611504816112dc565b9050919050565b600060208201905081810360008301526115248161131c565b9050919050565b600060208201905081810360008301526115448161135c565b9050919050565b6000602082019050611560600083018461147f565b92915050565b6000604051905081810181811067ffffffffffffffff8211171561158957600080fd5b8060405250919050565b600067ffffffffffffffff8211156115aa57600080fd5b601f19601f8301169050602081019050919050565b6000819050602082019050919050565b6000819050602082019050919050565b6000819050602082019050919050565b600081519050919050565b600081519050919050565b600081519050919050565b600081519050919050565b6000602082019050919050565b6000602082019050919050565b6000602082019050919050565b600082825260208201905092915050565b600082825260208201905092915050565b600082825260208201905092915050565b600082825260208201905092915050565b600082825260208201905092915050565b60006116a2826116b5565b9050919050565b60008115159050919050565b600073ffffffffffffffffffffffffffffffffffffffff82169050919050565b6000819050919050565b82818337600083830152505050565b60005b8381101561170c5780820151818401526020810190506116f1565b8381111561171b576000848401525b50505050565b6000601f19601f8301169050919050565b61173b81611697565b811461174657600080fd5b5056fea365627a7a7231582066e456c1d7b916a829fedabc7171822442d21678dcbc04c6cf7c69e2ab58a40d6c6578706572696d656e74616cf564736f6c63430005100040",
  "source": "pragma solidity >=0.5.0 <0.9.0;\npragma experimental ABIEncoderV2;\n\ncontract Twitter{\n    struct Reply{\n        address author;\n        string content;\n        uint timestamp;\n    }\n    struct Tweet{\n        address author;\n        string content;\n        uint likeCount;\n        address[] likes;\n        Reply[] replies;\n    }\n    struct User{\n        address userAddress;\n        uint id;\n        string fullname;\n        uint[] tweets;\n    }\n    \n    uint public userCount = 0;\n    mapping(address => User) users;\n    uint public tweetCount = 0;\n    mapping(uint => Tweet) tweets;\n    \n    function userExists(address _addr) public view returns(bool){\n        return bytes(users[_addr].fullname).length > 0;\n    }\n    \n    function _checkLength(string memory _str) internal view returns(bool){\n        return bytes(_str).length>0;\n    }\n    \n    function createUser(string calldata _fullname) external {\n        require(userExists(msg.sender)==false, \"User already exists!\");\n        require(_checkLength(_fullname), \"Fullname can't be empty!\");\n        userCount+=1;\n        users[msg.sender].userAddress =  msg.sender;\n        users[msg.sender].id= userCount;\n        users[msg.sender].fullname = _fullname;\n    }\n    \n    function newTweet(string memory _content) public {\n        require(userExists(msg.sender), \"User doesn't exists!\");\n        require(_checkLength(_content), \"Tweet content can't be empty!\");\n        tweets[tweetCount].author = msg.sender;\n        tweets[tweetCount].content = _content;\n        tweets[tweetCount].likeCount = 0;\n        users[msg.sender].tweets.push(tweetCount);\n        tweetCount++;\n    }\n    \n    // function newReply(uint _tweetId, string memory _content){\n        \n    // }\n    \n    function getAllTweets() public view returns(Tweet[] memory){\n        Tweet[] memory tmp = new Tweet[](tweetCount);\n        uint i=0;\n        for(i; i<tweetCount; i++){\n            tmp[i]=tweets[i];\n        }\n        return tmp;\n    }\n    \n    function getTweetsByUser(address _user) public view returns(Tweet[] memory){\n        require(userExists(_user), \"User doesn't exists!\");\n        Tweet[] memory tmp = new Tweet[](users[_user].tweets.length);\n        uint i=0;\n        for(i; i<users[_user].tweets.length; i++){\n            tmp[i] = tweets[users[_user].tweets[i]];\n        }\n        return tmp;\n    }\n    \n    \n}",
  "sourcePath": "/home/sameer/Documents/dev/blockchain/dnetwork/contracts/Twitter.sol",
  "compiler": {
    "name": "solc",
    "version": "0.5.16+commit.9c3226ce.Emscripten.clang"
  },
  "schemaVersion": "3.4.3",
  "updatedAt": "2021-09-15T17:52:31.921Z",
  "networkType": "ethereum",
  "devdoc": {
    "methods": {}
  },
  "userdoc": {
    "methods": {}
  }
}